:020000040800F2
:1000000000500020C5040008210500082105000853
:100010002105000821050008210500080000000056
:1000200000000000000000000000000021050008A2
:100030002105000800000000210500082105000836
:1000400000000000000000000000000000000000B0
:1000500000000000000000000000000000000000A0
:100060000000000000000000000000000000000090
:100070000000000000000000000000000000000080
:100080000000000000000000000000000000000070
:100090000000000000000000000000000000000060
:1000A0000000000000000000000000000000000050
:1000B0000000000000000000000000000000000040
:1000C0000000000000000000000000000000000030
:1000D00000000000000000000104000880B400AF30
:1000E0001C4B9B691B4A43F0040393611A4B1B682A
:1000F000194A23F470631360174B1B68164A23F4E4
:1001000070431360144B1B68134A43F480731360ED
:10011000114B1B68104A43F4006313600E4B1B68BD
:100120000D4A43F4004313600B4BDB680A4A43F06B
:100130000803D360084B5B68074A23F4706353607D
:10014000054B5B68044A43F44073536000BFBD46EF
:1001500080BC7047001002400008014080B400AF2E
:10016000044BDB68034A23F48063D36000BFBD46C1
:1001700080BC70470008014080B400AF044BDB68CE
:10018000034A43F48063D36000BFBD4680BC704720
:100190000008014080B487B000AF0346FB7197F9B7
:1001A0000730002B20DB97F907307B617B691F2B21
:1001B0000BD8104BFB60FB681A6801217B6901FAC0
:1001C00003F31A43FB681A600EE07B693F2B0BD8E0
:1001D000094B3B613B691A687B69203B012101FAAD
:1001E00003F31A433B691A6000BF1C37BD4680BC4D
:1001F000704700BF00E100E004E100E080B485B09A
:1002000000AF03463960FB7197F90730002B0ADB1A
:10021000074BFB603B68DAB297F90730F9680B448B
:100220001201D2B21A7000BF1437BD4680BC7047AD
:1002300000E400E080B582B000AF244BDB69234AC4
:1002400043F40033D361224BDB68214A23F400538B
:10025000D3601F4B40F241329A601D4BDB681C4A51
:1002600023F48053D3601A4BDB68194A23F480636C
:10027000D360174B1B69164A23F440531361144B88
:10028000DB68134A43F00C03D360114BDB68104A60
:1002900043F02003D3602620FFF77CFF01212620B6
:1002A000FFF7ACFF0A4BDB68094A43F40053D36005
:1002B000074B1B689BB2FB80054B5B689BB2FB80C6
:1002C000FB8800BF0837BD4680BD00BF001002405C
:1002D0000044004080B483B000AF0346FB7100BF10
:1002E000064B1B6803F08003002BF9D0034AFB790F
:1002F000536000BF0C37BD4680BC704700440040CF
:1003000080B582B000AF786006E07B685A1C7A60E6
:100310001B781846FFF7DEFF7B681B78002BF4D1B3
:1003200000BF00BF0837BD4680BD00BF80B485B0A8
:1003300000AF78600B46FB707B68B3F840309BB22F
:1003400001339BB203F03F03FB817B68B3F842307B
:100350009BB2FA899A420BD07B68B3F840309BB2CB
:1003600019467B68FA785A547B68FA89A3F84020CA
:1003700000BF1437BD4680BC704780B485B000AF65
:1003800078600023FB737B68B3F840309BB2BB817D
:100390007B68B3F842309AB2BB899BB29A4213D0C1
:1003A0007B68B3F842309BB21A467B689B5CFB7358
:1003B0007B68B3F842309BB201339BB203F03F033A
:1003C0009AB27B68A3F84220FB7B18461437BD46DF
:1003D00080BC704780B483B000AF78607B68B3F8AE
:1003E00040309AB27B68B3F842309BB29A4214BF55
:1003F00001230023DBB218460C37BD4680BC704792
:1004000080B582B000AF124B1B6803F02003002BB5
:100410000DD00F4BDB6803F02003002B07D00C4BF3
:100420005B68FB71FB7919460A48FFF77FFF084BB1
:100430001B6803F00F03002B06D0054B1B683B60C5
:10044000034B5B683B603B6800BF0837BD4680BD1F
:10045000004400400000002080B582B000AFFFF7EC
:100460003DFEFFF7E7FE0023FB71FFF785FE114815
:10047000FFF7B0FF0346002B19D00E48FFF77DFFB2
:100480000346FB71FB79532B07D0542B0BD1FFF79D
:1004900073FE0948FFF734FF0AE0FFF75FFE0748E5
:1004A000FFF72EFF04E00648FFF72AFF00E000BF39
:1004B000DDE700BF00000020280500083405000823
:1004C0004005000880B582B000AF104B7B60104B38
:1004D0003B6007E07A68131D7B603B68191D39603B
:1004E00012681A603B680B4A9342F3D30A4B3B6095
:1004F00004E03B681A1D3A6000221A603B68074A14
:100500009342F6D3FFF7A8FFFEE700BF4C050008B3
:100510000000002000000020000000204400002017
:1005200080B400AFFEE700BF2D4C4544204F464647
:100530000D0A00002D4C4544204F4E0D0A000000CE
:0C0540002D4552524F520D0A00000000E1
:04000005080004C526
:00000001FF
